:020000040800F2
:1000000008040020D50000080308000801080008C3
:1000100000000000000000000000000000000000E0
:100020000000000000000000000000004B08000875
:100030000000000000000000490800084D0800080A
:10004000E7000008E7000008E7000008E7000008F4
:10005000E7000008E7000008E7000008E7000008E4
:10006000E7000008E7000008E7000008E7000008D4
:10007000E7000008E7000008E7000008E7000008C4
:10008000E7000008E7000008E7000008E7000008B4
:10009000E7000008E7000008E7000008E7000008A4
:1000A000E7000008E7000008E7000008E700000894
:1000B000E7000008E7000008E7000008E700000884
:1000C0000348854600F03CF8004800472509000831
:1000D000080400200448804704480047FEE7FEE784
:1000E000FEE7FEE7FEE7FEE795080008C10000080E
:1000F00030B50B46014600202022012409E00D46C0
:10010000D5409D4205D31D469540491B2546954047
:1001100040191546521E002DF1DC30BDD2B201E06F
:100120000270401C491EFBD270470022F6E710B552
:1001300013460A4604461946FFF7F0FF204610BD55
:10014000064C0125064E05E0E36807CC2B430C3C2A
:1001500098471034B442F7D3FFF7B6FFA009000860
:10016000C009000831B500F00BF8009C0546601C82
:1001700000D0641C00F004F8401BA042FAD338BD44
:100180000148006870470000000000200248016834
:10019000491C0160704700000000002010B50648AF
:1001A0000168102211430160002000F007F800F000
:1001B00017F8002010BD00000020024010B50446D2
:1001C00000F0D0F87D21C900FFF792FF00F000FB9E
:1001D00000222146501E00F017F8002010BD00003C
:1001E00008B5084881690122114381618169114084
:1001F0000091C26901040A43C261C06908400090CD
:1002000008BD00000010024010B500F0FBFA10BD60
:10021000F8B505464E480E460068C007C00FB0420C
:100220000AD24B480168490849003143016000681F
:10023000C007C00FB04270D12878464C800705D562
:100240006068F0218843A968084360602878C00787
:1002500053D06868012817D0022818D0032819D075
:1002600021688907002958DA6168890889000143F3
:100270006160FFF785FF69680746012913D00229ED
:100280001DD0032927D034E021688903EAE72168DB
:100290008901E7E7616BC903E4E7FFF771FFC11B61
:1002A0002D48814223D860680007800F0128F4D1CF
:1002B00023E0FFF765FFC11B2748814217D860681C
:1002C0000007800F0228F4D117E0FFF759FFC11B88
:1002D000214881420BD860680007800F0328F4D1C1
:1002E0000BE0FFF74DFFC11B1B48814201D90320E2
:1002F000F8BD60680007800FF3D115480168C90791
:10030000C90FB1420BD90168490849003143016066
:100310000068C007C00FB04201D00120F8BD2878A6
:10032000400706D56068072109028843E968084349
:10033000606000F01DF86168084A0906090F515C09
:10034000C840074908600020FFF738FF0020F8BDCB
:1003500000200240001002408813000090090008AD
:1003600004000020014800687047000004000020DD
:1003700030B516A30FCB89B06C460FC417A30FCBB3
:100380000FC41A494A680C20144604401848042C2B
:1003900005D0184B082C04D00C2C00D1184609B0FD
:1003A00030BD9402240F6D462C5DC96A04AD090767
:1003B000090FD203695C920F022A02D0032A00D1EE
:1003C0001846FFF795FE6043E9E7000002030405C5
:1003D000060708090A0B0C0D0E0F1010010203048A
:1003E00005060708090A0B0C0D0E0F10001002403D
:1003F00000127A00006CDC02FEB504460078F04E74
:10040000F04DC00748D068680007800F01281FD052
:1004100068680007800F022804D16868C003800F55
:10042000022815D06168012919D001208004002913
:1004300001D0052917D02968B14329602968814373
:100440002960606800281BD0FFF79AFE074613E07A
:100450002868800320D56068002876D01CE02868D2
:1004600030432860EDE7296801432960F7E7FFF78B
:1004700087FEC01B642869D828688003F7D50BE085
:10048000FFF77EFE074604E0FFF77AFEC01B6428F4
:10049000F1D828688003F7D4207880073ED56868B3
:1004A0000007800F14D068680007800F022804D16D
:1004B0006868C003800F01280AD0E0680028286817
:1004C0001DD0012108432860FFF75AFE07460BE0C4
:1004D000286880070BD5E068012836D107E0FFF7D0
:1004E0004FFEC01B0228C6D828688007F7D52868A9
:1004F000F82188432169C900084328600EE04008BC
:1005000040002860FFF73CFE074604E0FFF738FE96
:10051000C01B0228AFD828688007F7D420780007CE
:1005200024D5E0690028686A11D001210843686277
:10053000FFF726FE074604E0FFF722FEC01B022855
:1005400099D8686A8007F7D510E036E1D1E0400815
:1005500040006862FFF714FE074604E0FFF710FE54
:10056000C01B022887D8686A8007F7D42078042740
:100570004007002861DA00200190E869C00008D433
:10058000E969B8060143E961E96901400120009188
:1005900001908D480168C90511D401688215114385
:1005A0000160FFF7EDFD009005E0FFF7E9FD009920
:1005B000401A642897D884480068C005F5D5A0681B
:1005C00001280AD0002801D0052811D0286A400847
:1005D00040002862286AB84302E0286A01210843E3
:1005E0002862A068002812D0FFF7CAFD00900AE038
:1005F000286A38432862F0E7FFF7C2FD0099411AE4
:100600007248814275D8286A8007F5D50DE0FFF75A
:10061000B7FD009006E0FFF7B3FD0099411A6B4863
:10062000814266D8286A8007F5D40198002804D052
:10063000E969012000078143E9612078C00635D5CA
:10064000606901280CD0401D686B24D03843686372
:10065000686B400840006863FFF792FD074622E0A0
:10066000686B38436863686B012108436863FFF770
:1006700087FD074604E0FFF783FDC01B022838D83A
:10068000686B8007F7D5686BF8218843A169C900BA
:10069000084368630AE0B8436863F4E7FFF770FD56
:1006A000C01B022825D8686B8007F7D42078800605
:1006B00037D568680007800F032813D068680007E3
:1006C000800F022804D16868C003800F032809D076
:1006D000206A0028686B16D030436863FFF750FD2E
:1006E00006460CE0686BC0031BD5206A012864D164
:1006F00017E05BE0FFF744FD801B022856D8686BCB
:10070000C003F7D50DE0B0436863FFF739FD064637
:1007100004E0FFF735FD801B022847D8686BC00353
:10072000F7D4606A002846D069680907890F022952
:1007300043D0012636060228286805D0B043286039
:10074000FFF71EFD044633E0B0432860FFF718FDB5
:10075000074604E0FFF714FDC01B022826D82868CE
:100760008001F7D4E86A216B000900010843E862C0
:10077000A16AE06A084369687B22D2039143084377
:100780006860286830432860FFF7FAFC044604E0FC
:10079000FFF7F6FC001B022808D828688001F7D56F
:1007A00009E0FFF7EDFC001B022801D90320FEBD84
:1007B00028688001F5D40020FEBD0120FEBD0000A8
:1007C000000001000010024000700040881300008B
:1007D000094910B5401E884201D9012010BD074CBF
:1007E00060610321081F00F00DF80020A0610720C0
:1007F0002061002010BD0000FFFFFF0000E000E0CE
:10080000FEE770478307FF22DB0E9A408907090E37
:10081000994000280BDA0007000F083883080848C1
:100820009B001818C36993430B43C3617047830847
:1008300004489B001B1818689043084318607047D1
:1008400000ED00E000E400E07047704710B5FFF7EE
:100850009DFC10BD10B592B034216846FFF765FCD1
:1008600000240F94022000900D9401200E94039018
:1008700010200994049010946846FFF7BDFD0720EE
:100880000D900E940F94002110940DA8FFF7C0FC5A
:1008900012B010BD12480168012211430160416885
:1008A000104A1140416001680F4A1140016001681F
:1008B000012292049143016041683F221204914356
:1008C0004160C16A09090901C162016B074A11400F
:1008D0000163416B49084900416300218160704711
:1008E000001002400CB8FF08FFFFF6FE2CFEFCFFD4
:1008F0000349CA69002AFCD00149203108817047A8
:100900000048004002E008C8121F08C1002AFAD1BE
:1009100070477047002001E001C1121F002AFBD17F
:1009200070470000FFF73AFCFFF794FF1548C269D3
:10093000012189040A43C26142690A4342611248A3
:10094000416A112292021143416205214905016069
:10095000FFF708FD4B21C901FFF7CAFB0B49C8602F
:1009600008680C22104308600868012210430860E0
:10097000FF2491347820FFF7BBFF2046FFF7F2FBFE
:10098000F8E7000000100240000400480048004062
:10099000000000000000000001020304060708092F
:1009A000C009000800000020080000000409000839
:1009B000C80900080800002000040000140900080D
:0809C0000000000000127A00A3
:04000005080000C12E
:00000001FF
